{
  "contractName": "UnitStampFactory",
  "abi": [
    {
      "anonymous": false,
      "inputs": [
        {
          "indexed": false,
          "name": "stamp",
          "type": "string"
        },
        {
          "indexed": false,
          "name": "receiver",
          "type": "address"
        }
      ],
      "name": "StampCreated",
      "type": "event"
    },
    {
      "anonymous": false,
      "inputs": [
        {
          "indexed": false,
          "name": "stamp",
          "type": "string"
        },
        {
          "indexed": false,
          "name": "owner",
          "type": "address"
        }
      ],
      "name": "StampActivated",
      "type": "event"
    },
    {
      "anonymous": false,
      "inputs": [
        {
          "indexed": false,
          "name": "stamp",
          "type": "string"
        },
        {
          "indexed": false,
          "name": "from",
          "type": "address"
        },
        {
          "indexed": false,
          "name": "to",
          "type": "address"
        }
      ],
      "name": "StampInDelivering",
      "type": "event"
    },
    {
      "anonymous": false,
      "inputs": [
        {
          "indexed": false,
          "name": "stamp",
          "type": "string"
        },
        {
          "indexed": false,
          "name": "owner",
          "type": "address"
        }
      ],
      "name": "ConfirmReceiveDeliveryStamp",
      "type": "event"
    },
    {
      "constant": false,
      "inputs": [
        {
          "name": "_stampCode",
          "type": "string"
        },
        {
          "name": "_receiver",
          "type": "address"
        }
      ],
      "name": "initStamp",
      "outputs": [
        {
          "name": "",
          "type": "bool"
        }
      ],
      "payable": false,
      "stateMutability": "nonpayable",
      "type": "function"
    },
    {
      "constant": false,
      "inputs": [
        {
          "name": "_stampCode",
          "type": "string"
        }
      ],
      "name": "activateStamp",
      "outputs": [
        {
          "name": "",
          "type": "bool"
        }
      ],
      "payable": false,
      "stateMutability": "nonpayable",
      "type": "function"
    },
    {
      "constant": false,
      "inputs": [
        {
          "name": "_stampCode",
          "type": "string"
        },
        {
          "name": "_receiver",
          "type": "address"
        }
      ],
      "name": "createDelivery",
      "outputs": [
        {
          "name": "",
          "type": "bool"
        }
      ],
      "payable": false,
      "stateMutability": "nonpayable",
      "type": "function"
    },
    {
      "constant": false,
      "inputs": [
        {
          "name": "_stampCode",
          "type": "string"
        }
      ],
      "name": "receiveDelivery",
      "outputs": [
        {
          "name": "",
          "type": "bool"
        }
      ],
      "payable": false,
      "stateMutability": "nonpayable",
      "type": "function"
    },
    {
      "constant": true,
      "inputs": [
        {
          "name": "_stampCode",
          "type": "string"
        }
      ],
      "name": "getStampInfo",
      "outputs": [
        {
          "name": "",
          "type": "address"
        },
        {
          "name": "",
          "type": "address"
        },
        {
          "name": "",
          "type": "uint8"
        }
      ],
      "payable": false,
      "stateMutability": "view",
      "type": "function"
    }
  ],
  "bytecode": "0x608060405234801561001057600080fd5b506110ea806100206000396000f30060806040526004361061006d576000357c0100000000000000000000000000000000000000000000000000000000900463ffffffff16806368fc4b32146100725780638d77e89614610113578063d3dd62cd146101b4578063f174f94e14610235578063fe23a8ae1461031e575b600080fd5b34801561007e57600080fd5b506100f9600480360381019080803590602001908201803590602001908080601f0160208091040260200160405190810160405280939291908181526020018383808284378201915050505050509192919290803573ffffffffffffffffffffffffffffffffffffffff16906020019092919050505061039f565b604051808215151515815260200191505060405180910390f35b34801561011f57600080fd5b5061019a600480360381019080803590602001908201803590602001908080601f0160208091040260200160405190810160405280939291908181526020018383808284378201915050505050509192919290803573ffffffffffffffffffffffffffffffffffffffff16906020019092919050505061067f565b604051808215151515815260200191505060405180910390f35b3480156101c057600080fd5b5061021b600480360381019080803590602001908201803590602001908080601f0160208091040260200160405190810160405280939291908181526020018383808284378201915050505050509192919290505050610a11565b604051808215151515815260200191505060405180910390f35b34801561024157600080fd5b5061029c600480360381019080803590602001908201803590602001908080601f0160208091040260200160405190810160405280939291908181526020018383808284378201915050505050509192919290505050610c55565b604051808473ffffffffffffffffffffffffffffffffffffffff1673ffffffffffffffffffffffffffffffffffffffff1681526020018373ffffffffffffffffffffffffffffffffffffffff1673ffffffffffffffffffffffffffffffffffffffff1681526020018260ff1660ff168152602001935050505060405180910390f35b34801561032a57600080fd5b50610385600480360381019080803590602001908201803590602001908080601f0160208091040260200160405190810160405280939291908181526020018383808284378201915050505050509192919290505050610dc1565b604051808215151515815260200191505060405180910390f35b6000806000846040518082805190602001908083835b6020831015156103da57805182526020820191506020810190506020830392506103b5565b6001836020036101000a038019825116818451168082178552505050505050905001915050908152602001604051809103902090508060010160009054906101000a900473ffffffffffffffffffffffffffffffffffffffff1673ffffffffffffffffffffffffffffffffffffffff168160000160009054906101000a900473ffffffffffffffffffffffffffffffffffffffff1673ffffffffffffffffffffffffffffffffffffffff161480156104e157503373ffffffffffffffffffffffffffffffffffffffff168160000160009054906101000a900473ffffffffffffffffffffffffffffffffffffffff1673ffffffffffffffffffffffffffffffffffffffff16145b15156104ec57600080fd5b60028160010160149054906101000a900460ff1660ff1614151561050f57600080fd5b828160010160006101000a81548173ffffffffffffffffffffffffffffffffffffffff021916908373ffffffffffffffffffffffffffffffffffffffff16021790555060038160010160146101000a81548160ff021916908360ff1602179055507f76ebd14cd5f3be3e277422ac6ac5e6cd24d4c9acd6f603c7d898b955d6bccad284338560405180806020018473ffffffffffffffffffffffffffffffffffffffff1673ffffffffffffffffffffffffffffffffffffffff1681526020018373ffffffffffffffffffffffffffffffffffffffff1673ffffffffffffffffffffffffffffffffffffffff168152602001828103825285818151815260200191508051906020019080838360005b8381101561063857808201518184015260208101905061061d565b50505050905090810190601f1680156106655780820380516001836020036101000a031916815260200191505b5094505050505060405180910390a1600191505092915050565b6000806000846040518082805190602001908083835b6020831015156106ba5780518252602082019150602081019050602083039250610695565b6001836020036101000a03801982511681845116808217855250505050505090500191505090815260200160405180910390209050600073ffffffffffffffffffffffffffffffffffffffff168160000160009054906101000a900473ffffffffffffffffffffffffffffffffffffffff1673ffffffffffffffffffffffffffffffffffffffff1614801561079f5750600073ffffffffffffffffffffffffffffffffffffffff168160010160009054906101000a900473ffffffffffffffffffffffffffffffffffffffff1673ffffffffffffffffffffffffffffffffffffffff16145b15156107aa57600080fd5b60008160010160149054906101000a900460ff1660ff161415156107cd57600080fd5b6060604051908101604052808473ffffffffffffffffffffffffffffffffffffffff1681526020018473ffffffffffffffffffffffffffffffffffffffff168152602001600160ff168152506000856040518082805190602001908083835b602083101515610851578051825260208201915060208101905060208303925061082c565b6001836020036101000a038019825116818451168082178552505050505050905001915050908152602001604051809103902060008201518160000160006101000a81548173ffffffffffffffffffffffffffffffffffffffff021916908373ffffffffffffffffffffffffffffffffffffffff16021790555060208201518160010160006101000a81548173ffffffffffffffffffffffffffffffffffffffff021916908373ffffffffffffffffffffffffffffffffffffffff16021790555060408201518160010160146101000a81548160ff021916908360ff1602179055509050507f1d5f45f7447fca0a441c1da9d5ede19090ee83f84138d019ae4b33017c4b5f3f848460405180806020018373ffffffffffffffffffffffffffffffffffffffff1673ffffffffffffffffffffffffffffffffffffffff168152602001828103825284818151815260200191508051906020019080838360005b838110156109cb5780820151818401526020810190506109b0565b50505050905090810190601f1680156109f85780820380516001836020036101000a031916815260200191505b50935050505060405180910390a1600191505092915050565b6000806000836040518082805190602001908083835b602083101515610a4c5780518252602082019150602081019050602083039250610a27565b6001836020036101000a038019825116818451168082178552505050505050905001915050908152602001604051809103902090503373ffffffffffffffffffffffffffffffffffffffff168160000160009054906101000a900473ffffffffffffffffffffffffffffffffffffffff1673ffffffffffffffffffffffffffffffffffffffff16148015610b2f57503373ffffffffffffffffffffffffffffffffffffffff168160010160009054906101000a900473ffffffffffffffffffffffffffffffffffffffff1673ffffffffffffffffffffffffffffffffffffffff16145b1515610b3a57600080fd5b60018160010160149054906101000a900460ff1660ff16141515610b5d57600080fd5b60028160010160146101000a81548160ff021916908360ff1602179055507f1a198aa8717a14683baf808f624805eb340f8f7f5c7845821ca660a683c9c06b833360405180806020018373ffffffffffffffffffffffffffffffffffffffff1673ffffffffffffffffffffffffffffffffffffffff168152602001828103825284818151815260200191508051906020019080838360005b83811015610c10578082015181840152602081019050610bf5565b50505050905090810190601f168015610c3d5780820380516001836020036101000a031916815260200191505b50935050505060405180910390a16001915050919050565b6000806000610c6261106d565b6000856040518082805190602001908083835b602083101515610c9a5780518252602082019150602081019050602083039250610c75565b6001836020036101000a0380198251168184511680821785525050505050509050019150509081526020016040518091039020606060405190810160405290816000820160009054906101000a900473ffffffffffffffffffffffffffffffffffffffff1673ffffffffffffffffffffffffffffffffffffffff1673ffffffffffffffffffffffffffffffffffffffff1681526020016001820160009054906101000a900473ffffffffffffffffffffffffffffffffffffffff1673ffffffffffffffffffffffffffffffffffffffff1673ffffffffffffffffffffffffffffffffffffffff1681526020016001820160149054906101000a900460ff1660ff1660ff16815250509050806000015181602001518260400151935093509350509193909250565b6000806000836040518082805190602001908083835b602083101515610dfc5780518252602082019150602081019050602083039250610dd7565b6001836020036101000a038019825116818451168082178552505050505050905001915050908152602001604051809103902090508060010160009054906101000a900473ffffffffffffffffffffffffffffffffffffffff1673ffffffffffffffffffffffffffffffffffffffff168160000160009054906101000a900473ffffffffffffffffffffffffffffffffffffffff1673ffffffffffffffffffffffffffffffffffffffff1614158015610f0457503373ffffffffffffffffffffffffffffffffffffffff168160010160009054906101000a900473ffffffffffffffffffffffffffffffffffffffff1673ffffffffffffffffffffffffffffffffffffffff16145b1515610f0f57600080fd5b60038160010160149054906101000a900460ff1660ff16141515610f3257600080fd5b338160000160006101000a81548173ffffffffffffffffffffffffffffffffffffffff021916908373ffffffffffffffffffffffffffffffffffffffff16021790555060028160010160146101000a81548160ff021916908360ff1602179055507f73680d37b7bb8a3e07406b12f73c676bd2fe0643e29f5186f4bb4caa4e2359b2833360405180806020018373ffffffffffffffffffffffffffffffffffffffff1673ffffffffffffffffffffffffffffffffffffffff168152602001828103825284818151815260200191508051906020019080838360005b8381101561102857808201518184015260208101905061100d565b50505050905090810190601f1680156110555780820380516001836020036101000a031916815260200191505b50935050505060405180910390a16001915050919050565b606060405190810160405280600073ffffffffffffffffffffffffffffffffffffffff168152602001600073ffffffffffffffffffffffffffffffffffffffff168152602001600060ff16815250905600a165627a7a72305820e68b3a88347d6f45687fcb6ffb3393e4016226971fc39d7dd1e2f549fd6074950029",
  "source": "pragma solidity >=0.4.22 <0.6.0;\n\ncontract UnitStampFactory {\n\n  /*\n    * STATUS ENUM:\n    * - 1: Pre-activation\n    * - 2: Activated\n    * - 3: In Delivering\n    *\n  */\n\n  struct UnitStamp {\n    address owner;\n    address receiver;\n    uint8 status;\n  }\n\n  mapping (string => UnitStamp) unitStamp;\n\n  event StampCreated(string stamp, address receiver);\n  event StampActivated(string stamp, address owner);\n  event StampInDelivering(string stamp, address from, address to);\n  event ConfirmReceiveDeliveryStamp(string stamp, address owner);\n\n  function initStamp(string memory _stampCode, address _receiver)\n    public\n    returns (bool)\n  {\n    UnitStamp storage stamp = unitStamp[_stampCode];\n    require(stamp.owner == address(0) && stamp.receiver == address(0));\n    require(stamp.status == 0);\n\n    unitStamp[_stampCode] = UnitStamp(_receiver, _receiver, 1);\n\n    emit StampCreated(_stampCode, _receiver);\n    return true;\n  }\n\n  function activateStamp(string memory _stampCode)\n    public\n    returns (bool)\n  {\n    UnitStamp storage stamp = unitStamp[_stampCode];\n    require(stamp.owner == msg.sender && stamp.receiver == msg.sender);\n    require(stamp.status == 1);\n\n    stamp.status = 2;\n\n    emit StampActivated(_stampCode, msg.sender);\n    return true;\n  }\n\n  function createDelivery(string memory _stampCode, address _receiver)\n    public\n    returns (bool)\n  {\n    UnitStamp storage stamp = unitStamp[_stampCode];\n    require(stamp.owner == stamp.receiver && stamp.owner == msg.sender);\n    require(stamp.status == 2);\n\n    stamp.receiver = _receiver;\n    stamp.status = 3;\n\n    emit StampInDelivering(_stampCode, msg.sender, _receiver);\n    return true;\n  }\n\n  function receiveDelivery(string memory _stampCode)\n    public\n    returns (bool)\n  {\n    UnitStamp storage stamp = unitStamp[_stampCode];\n    require(stamp.owner != stamp.receiver && stamp.receiver == msg.sender);\n    require(stamp.status == 3);\n\n    stamp.owner = msg.sender;\n    stamp.status = 2;\n\n    emit ConfirmReceiveDeliveryStamp(_stampCode, msg.sender);\n    return true;\n  }\n\n  function getStampInfo(string memory _stampCode)\n    public\n    view\n    returns (address, address, uint8)\n  {\n    UnitStamp memory stamp = unitStamp[_stampCode];\n    return (stamp.owner, stamp.receiver, stamp.status);\n  }\n}",
  "sourcePath": "/home/haminhdat/Desktop/old-version/aws-agritrace/smart-constract/contracts/UnitstampFactory.sol",
  "compiler": {
    "name": "solc",
    "version": "0.4.25+commit.59dbf8f1.Emscripten.clang"
  },
  "schemaVersion": "2.0.2",
  "updatedAt": "2019-05-21T15:47:25.036Z"
}